{
  "contractName": "kyc",
  "abi": [
    {
      "inputs": [
        {
          "internalType": "address",
          "name": "customer",
          "type": "address"
        },
        {
          "internalType": "string",
          "name": "name",
          "type": "string"
        },
        {
          "internalType": "string",
          "name": "caddress",
          "type": "string"
        },
        {
          "internalType": "string",
          "name": "aadhar",
          "type": "string"
        },
        {
          "internalType": "string",
          "name": "pan",
          "type": "string"
        },
        {
          "internalType": "string",
          "name": "mobile",
          "type": "string"
        },
        {
          "internalType": "string",
          "name": "email",
          "type": "string"
        },
        {
          "internalType": "string",
          "name": "account",
          "type": "string"
        },
        {
          "internalType": "uint256",
          "name": "password",
          "type": "uint256"
        }
      ],
      "name": "addCustomer",
      "outputs": [],
      "stateMutability": "nonpayable",
      "type": "function"
    },
    {
      "inputs": [],
      "name": "viewCustomers",
      "outputs": [
        {
          "internalType": "address[]",
          "name": "",
          "type": "address[]"
        },
        {
          "internalType": "string[]",
          "name": "",
          "type": "string[]"
        },
        {
          "internalType": "string[]",
          "name": "",
          "type": "string[]"
        },
        {
          "internalType": "string[]",
          "name": "",
          "type": "string[]"
        },
        {
          "internalType": "string[]",
          "name": "",
          "type": "string[]"
        },
        {
          "internalType": "string[]",
          "name": "",
          "type": "string[]"
        },
        {
          "internalType": "string[]",
          "name": "",
          "type": "string[]"
        },
        {
          "internalType": "string[]",
          "name": "",
          "type": "string[]"
        },
        {
          "internalType": "uint256[]",
          "name": "",
          "type": "uint256[]"
        },
        {
          "internalType": "uint256[]",
          "name": "",
          "type": "uint256[]"
        }
      ],
      "stateMutability": "view",
      "type": "function",
      "constant": true
    },
    {
      "inputs": [
        {
          "internalType": "address",
          "name": "customer",
          "type": "address"
        },
        {
          "internalType": "uint256",
          "name": "amount",
          "type": "uint256"
        }
      ],
      "name": "addAmount",
      "outputs": [],
      "stateMutability": "nonpayable",
      "type": "function"
    },
    {
      "inputs": [
        {
          "internalType": "address",
          "name": "customer",
          "type": "address"
        },
        {
          "internalType": "uint256",
          "name": "amount",
          "type": "uint256"
        }
      ],
      "name": "withdrawAmount",
      "outputs": [],
      "stateMutability": "nonpayable",
      "type": "function"
    },
    {
      "inputs": [
        {
          "internalType": "address",
          "name": "username",
          "type": "address"
        },
        {
          "internalType": "uint256",
          "name": "password",
          "type": "uint256"
        }
      ],
      "name": "loginAccount",
      "outputs": [
        {
          "internalType": "bool",
          "name": "",
          "type": "bool"
        }
      ],
      "stateMutability": "view",
      "type": "function",
      "constant": true
    }
  ],
  "bytecode": "0x608060405234801561001057600080fd5b506119f8806100206000396000f3fe608060405234801561001057600080fd5b50600436106100575760003560e01c806361f2d5461461005c578063736fe5651461008c5780638efb10f5146100a857806392c71b3a146100cf578063f1af92b6146100eb575b600080fd5b61007660048036038101906100719190610eed565b610107565b6040516100839190610f48565b60405180910390f35b6100a660048036038101906100a19190610eed565b6101e4565b005b6100b0610309565b6040516100c69a99989796959493929190611231565b60405180910390f35b6100e960048036038101906100e49190611448565b610a3d565b005b61010560048036038101906101009190610eed565b610d20565b005b60008060009050600090505b6000805490508110156101d8578373ffffffffffffffffffffffffffffffffffffffff166000828154811061014b5761014a6115d6565b5b9060005260206000200160009054906101000a900473ffffffffffffffffffffffffffffffffffffffff1673ffffffffffffffffffffffffffffffffffffffff161480156101b6575082600982815481106101a9576101a86115d6565b5b9060005260206000200154145b156101c55760019150506101de565b80806101d090611634565b915050610113565b60009150505b92915050565b600a60008373ffffffffffffffffffffffffffffffffffffffff1673ffffffffffffffffffffffffffffffffffffffff16815260200190815260200160002060009054906101000a900460ff1661023a57600080fd5b60005b600080549050811015610304578273ffffffffffffffffffffffffffffffffffffffff1660008281548110610275576102746115d6565b5b9060005260206000200160009054906101000a900473ffffffffffffffffffffffffffffffffffffffff1673ffffffffffffffffffffffffffffffffffffffff16036102f15781600882815481106102d0576102cf6115d6565b5b9060005260206000200160008282546102e9919061167c565b925050819055505b80806102fc90611634565b91505061023d565b505050565b6060806060806060806060806060806000600160026003600460056006600760086009898054806020026020016040519081016040528092919081815260200182805480156103ad57602002820191906000526020600020905b8160009054906101000a900473ffffffffffffffffffffffffffffffffffffffff1673ffffffffffffffffffffffffffffffffffffffff1681526020019060010190808311610363575b5050505050995088805480602002602001604051908101604052809291908181526020016000905b828210156104815783829060005260206000200180546103f4906116df565b80601f0160208091040260200160405190810160405280929190818152602001828054610420906116df565b801561046d5780601f106104425761010080835404028352916020019161046d565b820191906000526020600020905b81548152906001019060200180831161045057829003601f168201915b5050505050815260200190600101906103d5565b50505050985087805480602002602001604051908101604052809291908181526020016000905b828210156105545783829060005260206000200180546104c7906116df565b80601f01602080910402602001604051908101604052809291908181526020018280546104f3906116df565b80156105405780601f1061051557610100808354040283529160200191610540565b820191906000526020600020905b81548152906001019060200180831161052357829003601f168201915b5050505050815260200190600101906104a8565b50505050975086805480602002602001604051908101604052809291908181526020016000905b8282101561062757838290600052602060002001805461059a906116df565b80601f01602080910402602001604051908101604052809291908181526020018280546105c6906116df565b80156106135780601f106105e857610100808354040283529160200191610613565b820191906000526020600020905b8154815290600101906020018083116105f657829003601f168201915b50505050508152602001906001019061057b565b50505050965085805480602002602001604051908101604052809291908181526020016000905b828210156106fa57838290600052602060002001805461066d906116df565b80601f0160208091040260200160405190810160405280929190818152602001828054610699906116df565b80156106e65780601f106106bb576101008083540402835291602001916106e6565b820191906000526020600020905b8154815290600101906020018083116106c957829003601f168201915b50505050508152602001906001019061064e565b50505050955084805480602002602001604051908101604052809291908181526020016000905b828210156107cd578382906000526020600020018054610740906116df565b80601f016020809104026020016040519081016040528092919081815260200182805461076c906116df565b80156107b95780601f1061078e576101008083540402835291602001916107b9565b820191906000526020600020905b81548152906001019060200180831161079c57829003601f168201915b505050505081526020019060010190610721565b50505050945083805480602002602001604051908101604052809291908181526020016000905b828210156108a0578382906000526020600020018054610813906116df565b80601f016020809104026020016040519081016040528092919081815260200182805461083f906116df565b801561088c5780601f106108615761010080835404028352916020019161088c565b820191906000526020600020905b81548152906001019060200180831161086f57829003601f168201915b5050505050815260200190600101906107f4565b50505050935082805480602002602001604051908101604052809291908181526020016000905b828210156109735783829060005260206000200180546108e6906116df565b80601f0160208091040260200160405190810160405280929190818152602001828054610912906116df565b801561095f5780601f106109345761010080835404028352916020019161095f565b820191906000526020600020905b81548152906001019060200180831161094257829003601f168201915b5050505050815260200190600101906108c7565b505050509250818054806020026020016040519081016040528092919081815260200182805480156109c457602002820191906000526020600020905b8154815260200190600101908083116109b0575b5050505050915080805480602002602001604051908101604052809291908181526020018280548015610a1657602002820191906000526020600020905b815481526020019060010190808311610a02575b50505050509050995099509950995099509950995099509950995090919293949596979899565b600a60008a73ffffffffffffffffffffffffffffffffffffffff1673ffffffffffffffffffffffffffffffffffffffff16815260200190815260200160002060009054906101000a900460ff1615610a9457600080fd5b6001600a60008b73ffffffffffffffffffffffffffffffffffffffff1673ffffffffffffffffffffffffffffffffffffffff16815260200190815260200160002060006101000a81548160ff0219169083151502179055506000899080600181540180825580915050600190039060005260206000200160009091909190916101000a81548173ffffffffffffffffffffffffffffffffffffffff021916908373ffffffffffffffffffffffffffffffffffffffff160217905550600188908060018154018082558091505060019003906000526020600020016000909190919091509081610b8391906118bc565b50600287908060018154018082558091505060019003906000526020600020016000909190919091509081610bb891906118bc565b50600386908060018154018082558091505060019003906000526020600020016000909190919091509081610bed91906118bc565b50600485908060018154018082558091505060019003906000526020600020016000909190919091509081610c2291906118bc565b50600584908060018154018082558091505060019003906000526020600020016000909190919091509081610c5791906118bc565b50600683908060018154018082558091505060019003906000526020600020016000909190919091509081610c8c91906118bc565b50600782908060018154018082558091505060019003906000526020600020016000909190919091509081610cc191906118bc565b506008600090806001815401808255809150506001900390600052602060002001600090919091909150556009819080600181540180825580915050600190039060005260206000200160009091909190915055505050505050505050565b600a60008373ffffffffffffffffffffffffffffffffffffffff1673ffffffffffffffffffffffffffffffffffffffff16815260200190815260200160002060009054906101000a900460ff16610d7657600080fd5b60005b600080549050811015610e40578273ffffffffffffffffffffffffffffffffffffffff1660008281548110610db157610db06115d6565b5b9060005260206000200160009054906101000a900473ffffffffffffffffffffffffffffffffffffffff1673ffffffffffffffffffffffffffffffffffffffff1603610e2d578160088281548110610e0c57610e0b6115d6565b5b906000526020600020016000828254610e25919061198e565b925050819055505b8080610e3890611634565b915050610d79565b505050565b6000604051905090565b600080fd5b600080fd5b600073ffffffffffffffffffffffffffffffffffffffff82169050919050565b6000610e8482610e59565b9050919050565b610e9481610e79565b8114610e9f57600080fd5b50565b600081359050610eb181610e8b565b92915050565b6000819050919050565b610eca81610eb7565b8114610ed557600080fd5b50565b600081359050610ee781610ec1565b92915050565b60008060408385031215610f0457610f03610e4f565b5b6000610f1285828601610ea2565b9250506020610f2385828601610ed8565b9150509250929050565b60008115159050919050565b610f4281610f2d565b82525050565b6000602082019050610f5d6000830184610f39565b92915050565b600081519050919050565b600082825260208201905092915050565b6000819050602082019050919050565b610f9881610e79565b82525050565b6000610faa8383610f8f565b60208301905092915050565b6000602082019050919050565b6000610fce82610f63565b610fd88185610f6e565b9350610fe383610f7f565b8060005b83811015611014578151610ffb8882610f9e565b975061100683610fb6565b925050600181019050610fe7565b5085935050505092915050565b600081519050919050565b600082825260208201905092915050565b6000819050602082019050919050565b600081519050919050565b600082825260208201905092915050565b60005b8381101561108757808201518184015260208101905061106c565b60008484015250505050565b6000601f19601f8301169050919050565b60006110af8261104d565b6110b98185611058565b93506110c9818560208601611069565b6110d281611093565b840191505092915050565b60006110e983836110a4565b905092915050565b6000602082019050919050565b600061110982611021565b611113818561102c565b9350836020820285016111258561103d565b8060005b85811015611161578484038952815161114285826110dd565b945061114d836110f1565b925060208a01995050600181019050611129565b50829750879550505050505092915050565b600081519050919050565b600082825260208201905092915050565b6000819050602082019050919050565b6111a881610eb7565b82525050565b60006111ba838361119f565b60208301905092915050565b6000602082019050919050565b60006111de82611173565b6111e8818561117e565b93506111f38361118f565b8060005b8381101561122457815161120b88826111ae565b9750611216836111c6565b9250506001810190506111f7565b5085935050505092915050565b600061014082019050818103600083015261124c818d610fc3565b90508181036020830152611260818c6110fe565b90508181036040830152611274818b6110fe565b90508181036060830152611288818a6110fe565b9050818103608083015261129c81896110fe565b905081810360a08301526112b081886110fe565b905081810360c08301526112c481876110fe565b905081810360e08301526112d881866110fe565b90508181036101008301526112ed81856111d3565b905081810361012083015261130281846111d3565b90509b9a5050505050505050505050565b600080fd5b600080fd5b7f4e487b7100000000000000000000000000000000000000000000000000000000600052604160045260246000fd5b61135582611093565b810181811067ffffffffffffffff821117156113745761137361131d565b5b80604052505050565b6000611387610e45565b9050611393828261134c565b919050565b600067ffffffffffffffff8211156113b3576113b261131d565b5b6113bc82611093565b9050602081019050919050565b82818337600083830152505050565b60006113eb6113e684611398565b61137d565b90508281526020810184848401111561140757611406611318565b5b6114128482856113c9565b509392505050565b600082601f83011261142f5761142e611313565b5b813561143f8482602086016113d8565b91505092915050565b60008060008060008060008060006101208a8c03121561146b5761146a610e4f565b5b60006114798c828d01610ea2565b99505060208a013567ffffffffffffffff81111561149a57611499610e54565b5b6114a68c828d0161141a565b98505060408a013567ffffffffffffffff8111156114c7576114c6610e54565b5b6114d38c828d0161141a565b97505060608a013567ffffffffffffffff8111156114f4576114f3610e54565b5b6115008c828d0161141a565b96505060808a013567ffffffffffffffff81111561152157611520610e54565b5b61152d8c828d0161141a565b95505060a08a013567ffffffffffffffff81111561154e5761154d610e54565b5b61155a8c828d0161141a565b94505060c08a013567ffffffffffffffff81111561157b5761157a610e54565b5b6115878c828d0161141a565b93505060e08a013567ffffffffffffffff8111156115a8576115a7610e54565b5b6115b48c828d0161141a565b9250506101006115c68c828d01610ed8565b9150509295985092959850929598565b7f4e487b7100000000000000000000000000000000000000000000000000000000600052603260045260246000fd5b7f4e487b7100000000000000000000000000000000000000000000000000000000600052601160045260246000fd5b600061163f82610eb7565b91507fffffffffffffffffffffffffffffffffffffffffffffffffffffffffffffffff820361167157611670611605565b5b600182019050919050565b600061168782610eb7565b915061169283610eb7565b92508282039050818111156116aa576116a9611605565b5b92915050565b7f4e487b7100000000000000000000000000000000000000000000000000000000600052602260045260246000fd5b600060028204905060018216806116f757607f821691505b60208210810361170a576117096116b0565b5b50919050565b60008190508160005260206000209050919050565b60006020601f8301049050919050565b600082821b905092915050565b6000600883026117727fffffffffffffffffffffffffffffffffffffffffffffffffffffffffffffffff82611735565b61177c8683611735565b95508019841693508086168417925050509392505050565b6000819050919050565b60006117b96117b46117af84610eb7565b611794565b610eb7565b9050919050565b6000819050919050565b6117d38361179e565b6117e76117df826117c0565b848454611742565b825550505050565b600090565b6117fc6117ef565b6118078184846117ca565b505050565b5b8181101561182b576118206000826117f4565b60018101905061180d565b5050565b601f8211156118705761184181611710565b61184a84611725565b81016020851015611859578190505b61186d61186585611725565b83018261180c565b50505b505050565b600082821c905092915050565b600061189360001984600802611875565b1980831691505092915050565b60006118ac8383611882565b9150826002028217905092915050565b6118c58261104d565b67ffffffffffffffff8111156118de576118dd61131d565b5b6118e882546116df565b6118f382828561182f565b600060209050601f8311600181146119265760008415611914578287015190505b61191e85826118a0565b865550611986565b601f19841661193486611710565b60005b8281101561195c57848901518255600182019150602085019450602081019050611937565b868310156119795784890151611975601f891682611882565b8355505b6001600288020188555050505b505050505050565b600061199982610eb7565b91506119a483610eb7565b92508282019050808211156119bc576119bb611605565b5b9291505056fea2646970667358221220ba68e6d22fbf87cd7fcf23ac6e86d84d6b6ec6325c3da29812cafd1757049c2e64736f6c63430008110033",
  "immutableReferences": {},
  "source": "// SPDX-License-Identifier: MIT\npragma solidity >=0.4.22 <0.9.0;\n\ncontract kyc {\n\n  address[] _customers;\n  string[] _names;\n  string[] _caddresses;\n  string[] _aadhars;\n  string[] _pans;\n  string[] _mobiles;\n  string[] _emails;\n  string[] _accounts;\n  uint[] _amounts;\n  uint[] _passwords;\n\n  mapping(address=>bool) users;\n\n  function addCustomer(address customer,string memory name,string memory caddress,string memory aadhar,string memory pan,string memory mobile,string memory email,string memory account,uint password) public{\n\n    require(!users[customer]);\n\n    users[customer]=true;\n    _customers.push(customer);\n    _names.push(name);\n    _caddresses.push(caddress);\n    _aadhars.push(aadhar);\n    _pans.push(pan);\n    _mobiles.push(mobile);\n    _emails.push(email);\n    _accounts.push(account);\n    _amounts.push(0);\n    _passwords.push(password);\n  }\n\n  function viewCustomers() public view returns(address[] memory,string[] memory,string[] memory,string[] memory,string[] memory,string[] memory,string[] memory,string[] memory,uint[] memory,uint[] memory){\n\n    return (_customers,_names,_caddresses,_aadhars,_pans,_mobiles,_emails,_accounts,_amounts,_passwords);\n  }\n\n  function addAmount(address customer,uint amount) public {\n\n    require(users[customer]);\n\n    uint i=0;\n    for(i=0;i<_customers.length;i++){\n      if(_customers[i]==customer){\n        _amounts[i]+=amount;\n      }\n    }\n  }\n\n  function withdrawAmount(address customer,uint amount) public{\n\n    require(users[customer]);\n\n    uint i=0;\n    for(i=0;i<_customers.length;i++){\n      if(_customers[i]==customer){\n        _amounts[i]-=amount;\n      }\n    }\n  }\n\n  function loginAccount(address username,uint password) public view returns(bool){\n\n    uint i=0;\n    for(i=0;i<_customers.length;i++){\n      if(_customers[i]==username && _passwords[i]==password){\n        return true;\n      }\n    }\n    return false;\n  }\n}\n",
  "sourcePath": "C:\\Users\\temp\\OneDrive\\Desktop\\BLOCKCHAIN BASED ADVANCED BANKING SOFTWARE SYSTEM\\contracts\\kyc.sol",
  "compiler": {
    "name": "solc",
    "version": "0.8.17+commit.8df45f5f.Emscripten.clang"
  },
  "schemaVersion": "3.4.11",
  "updatedAt": "2023-02-03T14:01:55.467Z",
  "networkType": "ethereum",
  "devdoc": {
    "kind": "dev",
    "methods": {},
    "version": 1
  },
  "userdoc": {
    "kind": "user",
    "methods": {},
    "version": 1
  }
}