{
  "contractName": "loan",
  "abi": [
    {
      "inputs": [
        {
          "internalType": "address",
          "name": "customer",
          "type": "address"
        },
        {
          "internalType": "uint256",
          "name": "amount",
          "type": "uint256"
        }
      ],
      "name": "addLoan",
      "outputs": [],
      "stateMutability": "nonpayable",
      "type": "function"
    },
    {
      "inputs": [],
      "name": "viewLoans",
      "outputs": [
        {
          "internalType": "address[]",
          "name": "",
          "type": "address[]"
        },
        {
          "internalType": "uint256[]",
          "name": "",
          "type": "uint256[]"
        },
        {
          "internalType": "uint256[]",
          "name": "",
          "type": "uint256[]"
        },
        {
          "internalType": "uint256[]",
          "name": "",
          "type": "uint256[]"
        }
      ],
      "stateMutability": "view",
      "type": "function",
      "constant": true
    },
    {
      "inputs": [
        {
          "internalType": "uint256",
          "name": "loanid",
          "type": "uint256"
        }
      ],
      "name": "approveLoan",
      "outputs": [],
      "stateMutability": "nonpayable",
      "type": "function"
    },
    {
      "inputs": [
        {
          "internalType": "uint256",
          "name": "loanid",
          "type": "uint256"
        }
      ],
      "name": "rejectLoan",
      "outputs": [],
      "stateMutability": "nonpayable",
      "type": "function"
    },
    {
      "inputs": [
        {
          "internalType": "uint256",
          "name": "loanid",
          "type": "uint256"
        }
      ],
      "name": "closeLoan",
      "outputs": [],
      "stateMutability": "nonpayable",
      "type": "function"
    }
  ],
  "bytecode": "0x6080604052600060045534801561001557600080fd5b506108cb806100256000396000f3fe608060405234801561001057600080fd5b50600436106100575760003560e01c806337554b811461005c5780635d29cb9814610078578063882baa7c14610094578063aadc1ac1146100b5578063d05951a0146100d1575b600080fd5b61007660048036038101906100719190610571565b6100ed565b005b610092600480360381019061008d91906105b1565b6101ec565b005b61009c61025d565b6040516100ac949392919061075a565b60405180910390f35b6100cf60048036038101906100ca91906105b1565b6103f7565b005b6100eb60048036038101906100e691906105b1565b610468565b005b60016004600082825461010091906107ea565b925050819055506000829080600181540180825580915050600190039060005260206000200160009091909190916101000a81548173ffffffffffffffffffffffffffffffffffffffff021916908373ffffffffffffffffffffffffffffffffffffffff1602179055506001819080600181540180825580915050600190039060005260206000200160009091909190915055600260045490806001815401808255809150506001900390600052602060002001600090919091909150556003600090806001815401808255809150506001900390600052602060002001600090919091909150555050565b60005b6002805490508110156102595781600282815481106102115761021061081e565b5b906000526020600020015403610246576002600382815481106102375761023661081e565b5b90600052602060002001819055505b80806102519061084d565b9150506101ef565b5050565b6060806060806000600160026003838054806020026020016040519081016040528092919081815260200182805480156102ec57602002820191906000526020600020905b8160009054906101000a900473ffffffffffffffffffffffffffffffffffffffff1673ffffffffffffffffffffffffffffffffffffffff16815260200190600101908083116102a2575b505050505093508280548060200260200160405190810160405280929190818152602001828054801561033e57602002820191906000526020600020905b81548152602001906001019080831161032a575b505050505092508180548060200260200160405190810160405280929190818152602001828054801561039057602002820191906000526020600020905b81548152602001906001019080831161037c575b50505050509150808054806020026020016040519081016040528092919081815260200182805480156103e257602002820191906000526020600020905b8154815260200190600101908083116103ce575b50505050509050935093509350935090919293565b60005b60028054905081101561046457816002828154811061041c5761041b61081e565b5b906000526020600020015403610451576001600382815481106104425761044161081e565b5b90600052602060002001819055505b808061045c9061084d565b9150506103fa565b5050565b60005b6002805490508110156104d457816002828154811061048d5761048c61081e565b5b9060005260206000200154036104c15760038082815481106104b2576104b161081e565b5b90600052602060002001819055505b80806104cc9061084d565b91505061046b565b5050565b600080fd5b600073ffffffffffffffffffffffffffffffffffffffff82169050919050565b6000610508826104dd565b9050919050565b610518816104fd565b811461052357600080fd5b50565b6000813590506105358161050f565b92915050565b6000819050919050565b61054e8161053b565b811461055957600080fd5b50565b60008135905061056b81610545565b92915050565b60008060408385031215610588576105876104d8565b5b600061059685828601610526565b92505060206105a78582860161055c565b9150509250929050565b6000602082840312156105c7576105c66104d8565b5b60006105d58482850161055c565b91505092915050565b600081519050919050565b600082825260208201905092915050565b6000819050602082019050919050565b610613816104fd565b82525050565b6000610625838361060a565b60208301905092915050565b6000602082019050919050565b6000610649826105de565b61065381856105e9565b935061065e836105fa565b8060005b8381101561068f5781516106768882610619565b975061068183610631565b925050600181019050610662565b5085935050505092915050565b600081519050919050565b600082825260208201905092915050565b6000819050602082019050919050565b6106d18161053b565b82525050565b60006106e383836106c8565b60208301905092915050565b6000602082019050919050565b60006107078261069c565b61071181856106a7565b935061071c836106b8565b8060005b8381101561074d57815161073488826106d7565b975061073f836106ef565b925050600181019050610720565b5085935050505092915050565b60006080820190508181036000830152610774818761063e565b9050818103602083015261078881866106fc565b9050818103604083015261079c81856106fc565b905081810360608301526107b081846106fc565b905095945050505050565b7f4e487b7100000000000000000000000000000000000000000000000000000000600052601160045260246000fd5b60006107f58261053b565b91506108008361053b565b9250828201905080821115610818576108176107bb565b5b92915050565b7f4e487b7100000000000000000000000000000000000000000000000000000000600052603260045260246000fd5b60006108588261053b565b91507fffffffffffffffffffffffffffffffffffffffffffffffffffffffffffffffff820361088a576108896107bb565b5b60018201905091905056fea264697066735822122021f14c183852955afa0bb241cce41f3ad81b806b857bd910d09c661e80d0ddcb64736f6c63430008110033",
  "immutableReferences": {},
  "source": "// SPDX-License-Identifier: MIT\npragma solidity >=0.4.22 <0.9.0;\n\ncontract loan {\n  \n  address[] _customers;\n  uint[] _loanAmounts;\n  uint[] _loanids;\n  uint[] _loanStatus;\n\n  uint lid=0;\n\n  function addLoan(address customer,uint amount) public{\n\n    lid+=1;\n    _customers.push(customer);\n    _loanAmounts.push(amount);\n    _loanids.push(lid);\n    _loanStatus.push(0);\n  }\n\n  function viewLoans() public view returns(address[] memory,uint[] memory,uint[] memory,uint[] memory){\n\n    return (_customers,_loanAmounts,_loanids,_loanStatus);\n  }\n\n  function approveLoan(uint loanid) public{\n\n    uint i=0;\n    for(i=0;i<_loanids.length;i++){\n      if(_loanids[i]==loanid){\n        _loanStatus[i]=1;\n      }\n    }\n  } \n\n  function rejectLoan(uint loanid) public{\n\n    uint i=0;\n    for(i=0;i<_loanids.length;i++){\n      if(_loanids[i]==loanid){\n        _loanStatus[i]=2;\n      }\n    }\n  } \n\n  function closeLoan(uint loanid) public{\n\n    uint i=0;\n    for(i=0;i<_loanids.length;i++){\n      if(_loanids[i]==loanid){\n        _loanStatus[i]=3;\n      }\n    }\n  } \n}\n",
  "sourcePath": "C:\\Users\\temp\\OneDrive\\Desktop\\BLOCKCHAIN BASED ADVANCED BANKING SOFTWARE SYSTEM\\contracts\\loan.sol",
  "compiler": {
    "name": "solc",
    "version": "0.8.17+commit.8df45f5f.Emscripten.clang"
  },
  "schemaVersion": "3.4.11",
  "updatedAt": "2023-02-03T14:01:58.417Z",
  "networkType": "ethereum",
  "devdoc": {
    "kind": "dev",
    "methods": {},
    "version": 1
  },
  "userdoc": {
    "kind": "user",
    "methods": {},
    "version": 1
  }
}