{
  "contractName": "transactions",
  "abi": [
    {
      "inputs": [
        {
          "internalType": "address",
          "name": "sender",
          "type": "address"
        },
        {
          "internalType": "address",
          "name": "reciever",
          "type": "address"
        },
        {
          "internalType": "uint256",
          "name": "amount",
          "type": "uint256"
        }
      ],
      "name": "addTransaction",
      "outputs": [],
      "stateMutability": "nonpayable",
      "type": "function"
    },
    {
      "inputs": [],
      "name": "viewTransactions",
      "outputs": [
        {
          "internalType": "address[]",
          "name": "",
          "type": "address[]"
        },
        {
          "internalType": "address[]",
          "name": "",
          "type": "address[]"
        },
        {
          "internalType": "uint256[]",
          "name": "",
          "type": "uint256[]"
        },
        {
          "internalType": "uint256[]",
          "name": "",
          "type": "uint256[]"
        },
        {
          "internalType": "uint256[]",
          "name": "",
          "type": "uint256[]"
        }
      ],
      "stateMutability": "view",
      "type": "function",
      "constant": true
    },
    {
      "inputs": [
        {
          "internalType": "uint256",
          "name": "id",
          "type": "uint256"
        }
      ],
      "name": "closeTransaction",
      "outputs": [],
      "stateMutability": "nonpayable",
      "type": "function"
    }
  ],
  "bytecode": "0x6080604052600060055534801561001557600080fd5b506108b8806100256000396000f3fe608060405234801561001057600080fd5b50600436106100415760003560e01c806347e5bec314610046578063f89f248714610062578063fe73b27f14610084575b600080fd5b610060600480360381019061005b91906104d8565b6100a0565b005b61006a610111565b60405161007b9594939291906106b3565b60405180910390f35b61009e60048036038101906100999190610755565b61033a565b005b60005b60048054905081101561010d5781600482815481106100c5576100c46107a8565b5b9060005260206000200154036100fa576001600382815481106100eb576100ea6107a8565b5b90600052602060002001819055505b808061010590610806565b9150506100a3565b5050565b606080606080606060006001600260036004848054806020026020016040519081016040528092919081815260200182805480156101a457602002820191906000526020600020905b8160009054906101000a900473ffffffffffffffffffffffffffffffffffffffff1673ffffffffffffffffffffffffffffffffffffffff168152602001906001019080831161015a575b505050505094508380548060200260200160405190810160405280929190818152602001828054801561022c57602002820191906000526020600020905b8160009054906101000a900473ffffffffffffffffffffffffffffffffffffffff1673ffffffffffffffffffffffffffffffffffffffff16815260200190600101908083116101e2575b505050505093508280548060200260200160405190810160405280929190818152602001828054801561027e57602002820191906000526020600020905b81548152602001906001019080831161026a575b50505050509250818054806020026020016040519081016040528092919081815260200182805480156102d057602002820191906000526020600020905b8154815260200190600101908083116102bc575b505050505091508080548060200260200160405190810160405280929190818152602001828054801561032257602002820191906000526020600020905b81548152602001906001019080831161030e575b50505050509050945094509450945094509091929394565b60016005600082825461034d919061084e565b925050819055506000839080600181540180825580915050600190039060005260206000200160009091909190916101000a81548173ffffffffffffffffffffffffffffffffffffffff021916908373ffffffffffffffffffffffffffffffffffffffff1602179055506001829080600181540180825580915050600190039060005260206000200160009091909190916101000a81548173ffffffffffffffffffffffffffffffffffffffff021916908373ffffffffffffffffffffffffffffffffffffffff160217905550600281908060018154018082558091505060019003906000526020600020016000909190919091505560036000908060018154018082558091505060019003906000526020600020016000909190919091505560046005549080600181540180825580915050600190039060005260206000200160009091909190915055505050565b600080fd5b6000819050919050565b6104b5816104a2565b81146104c057600080fd5b50565b6000813590506104d2816104ac565b92915050565b6000602082840312156104ee576104ed61049d565b5b60006104fc848285016104c3565b91505092915050565b600081519050919050565b600082825260208201905092915050565b6000819050602082019050919050565b600073ffffffffffffffffffffffffffffffffffffffff82169050919050565b600061055c82610531565b9050919050565b61056c81610551565b82525050565b600061057e8383610563565b60208301905092915050565b6000602082019050919050565b60006105a282610505565b6105ac8185610510565b93506105b783610521565b8060005b838110156105e85781516105cf8882610572565b97506105da8361058a565b9250506001810190506105bb565b5085935050505092915050565b600081519050919050565b600082825260208201905092915050565b6000819050602082019050919050565b61062a816104a2565b82525050565b600061063c8383610621565b60208301905092915050565b6000602082019050919050565b6000610660826105f5565b61066a8185610600565b935061067583610611565b8060005b838110156106a657815161068d8882610630565b975061069883610648565b925050600181019050610679565b5085935050505092915050565b600060a08201905081810360008301526106cd8188610597565b905081810360208301526106e18187610597565b905081810360408301526106f58186610655565b905081810360608301526107098185610655565b9050818103608083015261071d8184610655565b90509695505050505050565b61073281610551565b811461073d57600080fd5b50565b60008135905061074f81610729565b92915050565b60008060006060848603121561076e5761076d61049d565b5b600061077c86828701610740565b935050602061078d86828701610740565b925050604061079e868287016104c3565b9150509250925092565b7f4e487b7100000000000000000000000000000000000000000000000000000000600052603260045260246000fd5b7f4e487b7100000000000000000000000000000000000000000000000000000000600052601160045260246000fd5b6000610811826104a2565b91507fffffffffffffffffffffffffffffffffffffffffffffffffffffffffffffffff8203610843576108426107d7565b5b600182019050919050565b6000610859826104a2565b9150610864836104a2565b925082820190508082111561087c5761087b6107d7565b5b9291505056fea264697066735822122000449628f86b6302f3b4dfaf4471350451328d748fdd67250e6605823f9e038764736f6c63430008110033",
  "immutableReferences": {},
  "source": "// SPDX-License-Identifier: MIT\npragma solidity >=0.4.22 <0.9.0;\n\ncontract transactions {\n  \n  address[] _senders;\n  address[] _recievers;\n  uint[] _amounts;\n  uint[] _status;\n  uint[] _ids;\n\n  uint txid=0;\n\n  function addTransaction(address sender,address reciever,uint amount) public{\n\n    txid+=1;\n    _senders.push(sender);\n    _recievers.push(reciever);\n    _amounts.push(amount);\n    _status.push(0);\n    _ids.push(txid);\n  }\n\n  function viewTransactions() public view returns(address[] memory,address[] memory,uint[] memory,uint[] memory,uint[] memory){\n\n    return (_senders,_recievers,_amounts,_status,_ids);\n  }\n\n  function closeTransaction(uint id) public{\n\n    uint i=0;\n    for(i=0;i<_ids.length;i++){\n      if(_ids[i]==id){\n        _status[i]=1;\n      }\n    }\n  }\n}\n",
  "sourcePath": "C:\\Users\\temp\\OneDrive\\Desktop\\BLOCKCHAIN BASED ADVANCED BANKING SOFTWARE SYSTEM\\contracts\\transactions.sol",
  "compiler": {
    "name": "solc",
    "version": "0.8.17+commit.8df45f5f.Emscripten.clang"
  },
  "schemaVersion": "3.4.11",
  "updatedAt": "2023-02-03T14:01:57.190Z",
  "networkType": "ethereum",
  "devdoc": {
    "kind": "dev",
    "methods": {},
    "version": 1
  },
  "userdoc": {
    "kind": "user",
    "methods": {},
    "version": 1
  }
}